{
  "_format": "hh-sol-artifact-1",
  "contractName": "EfficientDisasterRelief",
  "sourceName": "contracts/final_smart_contract.sol",
  "abi": [
    {
      "inputs": [],
      "stateMutability": "nonpayable",
      "type": "constructor"
    },
    {
      "inputs": [],
      "name": "AlreadyAuthorized",
      "type": "error"
    },
    {
      "inputs": [
        {
          "internalType": "uint256",
          "name": "claimId",
          "type": "uint256"
        },
        {
          "internalType": "string",
          "name": "reason",
          "type": "string"
        }
      ],
      "name": "AutoDisbursalFailed",
      "type": "error"
    },
    {
      "inputs": [
        {
          "internalType": "address",
          "name": "sender",
          "type": "address"
        },
        {
          "internalType": "uint256",
          "name": "tokenId",
          "type": "uint256"
        },
        {
          "internalType": "address",
          "name": "owner",
          "type": "address"
        }
      ],
      "name": "ERC721IncorrectOwner",
      "type": "error"
    },
    {
      "inputs": [
        {
          "internalType": "address",
          "name": "operator",
          "type": "address"
        },
        {
          "internalType": "uint256",
          "name": "tokenId",
          "type": "uint256"
        }
      ],
      "name": "ERC721InsufficientApproval",
      "type": "error"
    },
    {
      "inputs": [
        {
          "internalType": "address",
          "name": "approver",
          "type": "address"
        }
      ],
      "name": "ERC721InvalidApprover",
      "type": "error"
    },
    {
      "inputs": [
        {
          "internalType": "address",
          "name": "operator",
          "type": "address"
        }
      ],
      "name": "ERC721InvalidOperator",
      "type": "error"
    },
    {
      "inputs": [
        {
          "internalType": "address",
          "name": "owner",
          "type": "address"
        }
      ],
      "name": "ERC721InvalidOwner",
      "type": "error"
    },
    {
      "inputs": [
        {
          "internalType": "address",
          "name": "receiver",
          "type": "address"
        }
      ],
      "name": "ERC721InvalidReceiver",
      "type": "error"
    },
    {
      "inputs": [
        {
          "internalType": "address",
          "name": "sender",
          "type": "address"
        }
      ],
      "name": "ERC721InvalidSender",
      "type": "error"
    },
    {
      "inputs": [
        {
          "internalType": "uint256",
          "name": "tokenId",
          "type": "uint256"
        }
      ],
      "name": "ERC721NonexistentToken",
      "type": "error"
    },
    {
      "inputs": [],
      "name": "EmptyArray",
      "type": "error"
    },
    {
      "inputs": [],
      "name": "ExceedsRequested",
      "type": "error"
    },
    {
      "inputs": [],
      "name": "InsufficientBalance",
      "type": "error"
    },
    {
      "inputs": [
        {
          "internalType": "uint256",
          "name": "claimId",
          "type": "uint256"
        }
      ],
      "name": "InsufficientNGOVerification",
      "type": "error"
    },
    {
      "inputs": [],
      "name": "InvalidAddress",
      "type": "error"
    },
    {
      "inputs": [],
      "name": "InvalidAmount",
      "type": "error"
    },
    {
      "inputs": [
        {
          "internalType": "string",
          "name": "cid",
          "type": "string"
        }
      ],
      "name": "InvalidCIDFormat",
      "type": "error"
    },
    {
      "inputs": [],
      "name": "InvalidState",
      "type": "error"
    },
    {
      "inputs": [],
      "name": "NotAuthorized",
      "type": "error"
    },
    {
      "inputs": [
        {
          "internalType": "address",
          "name": "owner",
          "type": "address"
        }
      ],
      "name": "OwnableInvalidOwner",
      "type": "error"
    },
    {
      "inputs": [
        {
          "internalType": "address",
          "name": "account",
          "type": "address"
        }
      ],
      "name": "OwnableUnauthorizedAccount",
      "type": "error"
    },
    {
      "inputs": [],
      "name": "ReentrancyGuardReentrantCall",
      "type": "error"
    },
    {
      "inputs": [],
      "name": "ThresholdTooLow",
      "type": "error"
    },
    {
      "inputs": [],
      "name": "TransferFailedError",
      "type": "error"
    },
    {
      "inputs": [
        {
          "internalType": "address",
          "name": "ngo",
          "type": "address"
        }
      ],
      "name": "UnauthorizedNGO",
      "type": "error"
    },
    {
      "inputs": [
        {
          "internalType": "address",
          "name": "claimant",
          "type": "address"
        }
      ],
      "name": "UnverifiedVictimAddress",
      "type": "error"
    },
    {
      "anonymous": false,
      "inputs": [
        {
          "indexed": true,
          "internalType": "uint256",
          "name": "claimId",
          "type": "uint256"
        },
        {
          "indexed": true,
          "internalType": "address",
          "name": "claimant",
          "type": "address"
        },
        {
          "indexed": false,
          "internalType": "bool",
          "name": "isVerified",
          "type": "bool"
        }
      ],
      "name": "AddressVerified",
      "type": "event"
    },
    {
      "anonymous": false,
      "inputs": [
        {
          "indexed": true,
          "internalType": "address",
          "name": "owner",
          "type": "address"
        },
        {
          "indexed": true,
          "internalType": "address",
          "name": "approved",
          "type": "address"
        },
        {
          "indexed": true,
          "internalType": "uint256",
          "name": "tokenId",
          "type": "uint256"
        }
      ],
      "name": "Approval",
      "type": "event"
    },
    {
      "anonymous": false,
      "inputs": [
        {
          "indexed": true,
          "internalType": "address",
          "name": "owner",
          "type": "address"
        },
        {
          "indexed": true,
          "internalType": "address",
          "name": "operator",
          "type": "address"
        },
        {
          "indexed": false,
          "internalType": "bool",
          "name": "approved",
          "type": "bool"
        }
      ],
      "name": "ApprovalForAll",
      "type": "event"
    },
    {
      "anonymous": false,
      "inputs": [
        {
          "indexed": true,
          "internalType": "uint256",
          "name": "claimId",
          "type": "uint256"
        },
        {
          "indexed": false,
          "internalType": "bool",
          "name": "success",
          "type": "bool"
        },
        {
          "indexed": false,
          "internalType": "string",
          "name": "reason",
          "type": "string"
        }
      ],
      "name": "AutoDisbursalAttempted",
      "type": "event"
    },
    {
      "anonymous": false,
      "inputs": [
        {
          "indexed": false,
          "internalType": "uint256",
          "name": "_fromTokenId",
          "type": "uint256"
        },
        {
          "indexed": false,
          "internalType": "uint256",
          "name": "_toTokenId",
          "type": "uint256"
        }
      ],
      "name": "BatchMetadataUpdate",
      "type": "event"
    },
    {
      "anonymous": false,
      "inputs": [
        {
          "indexed": false,
          "internalType": "string",
          "name": "operationType",
          "type": "string"
        },
        {
          "indexed": false,
          "internalType": "uint256",
          "name": "successCount",
          "type": "uint256"
        },
        {
          "indexed": false,
          "internalType": "uint256",
          "name": "totalCount",
          "type": "uint256"
        }
      ],
      "name": "BatchOperationCompleted",
      "type": "event"
    },
    {
      "anonymous": false,
      "inputs": [
        {
          "indexed": true,
          "internalType": "uint256",
          "name": "claimId",
          "type": "uint256"
        },
        {
          "indexed": false,
          "internalType": "string",
          "name": "cid",
          "type": "string"
        },
        {
          "indexed": false,
          "internalType": "bool",
          "name": "isValid",
          "type": "bool"
        }
      ],
      "name": "CIDValidated",
      "type": "event"
    },
    {
      "anonymous": false,
      "inputs": [
        {
          "indexed": true,
          "internalType": "uint256",
          "name": "claimId",
          "type": "uint256"
        },
        {
          "indexed": false,
          "internalType": "uint256",
          "name": "amount",
          "type": "uint256"
        }
      ],
      "name": "ClaimApproved",
      "type": "event"
    },
    {
      "anonymous": false,
      "inputs": [
        {
          "indexed": true,
          "internalType": "uint256",
          "name": "claimId",
          "type": "uint256"
        }
      ],
      "name": "ClaimRejected",
      "type": "event"
    },
    {
      "anonymous": false,
      "inputs": [
        {
          "indexed": true,
          "internalType": "uint256",
          "name": "claimId",
          "type": "uint256"
        },
        {
          "indexed": false,
          "internalType": "enum EfficientDisasterRelief.ClaimStatus",
          "name": "oldStatus",
          "type": "uint8"
        },
        {
          "indexed": false,
          "internalType": "enum EfficientDisasterRelief.ClaimStatus",
          "name": "newStatus",
          "type": "uint8"
        }
      ],
      "name": "ClaimStatusChanged",
      "type": "event"
    },
    {
      "anonymous": false,
      "inputs": [
        {
          "indexed": true,
          "internalType": "uint256",
          "name": "claimId",
          "type": "uint256"
        },
        {
          "indexed": true,
          "internalType": "address",
          "name": "claimant",
          "type": "address"
        }
      ],
      "name": "ClaimSubmitted",
      "type": "event"
    },
    {
      "anonymous": false,
      "inputs": [
        {
          "indexed": true,
          "internalType": "uint256",
          "name": "claimId",
          "type": "uint256"
        },
        {
          "indexed": false,
          "internalType": "uint256",
          "name": "required",
          "type": "uint256"
        },
        {
          "indexed": false,
          "internalType": "uint256",
          "name": "available",
          "type": "uint256"
        }
      ],
      "name": "ContractBalanceInsufficient",
      "type": "event"
    },
    {
      "anonymous": false,
      "inputs": [
        {
          "indexed": true,
          "internalType": "address",
          "name": "donor",
          "type": "address"
        },
        {
          "indexed": false,
          "internalType": "uint256",
          "name": "amount",
          "type": "uint256"
        },
        {
          "indexed": false,
          "internalType": "uint256",
          "name": "tokenId",
          "type": "uint256"
        }
      ],
      "name": "Donation",
      "type": "event"
    },
    {
      "anonymous": false,
      "inputs": [
        {
          "indexed": true,
          "internalType": "uint256",
          "name": "claimId",
          "type": "uint256"
        },
        {
          "indexed": true,
          "internalType": "address",
          "name": "to",
          "type": "address"
        },
        {
          "indexed": false,
          "internalType": "uint256",
          "name": "amount",
          "type": "uint256"
        }
      ],
      "name": "FundsDisbursed",
      "type": "event"
    },
    {
      "anonymous": false,
      "inputs": [
        {
          "indexed": true,
          "internalType": "uint256",
          "name": "claimId",
          "type": "uint256"
        },
        {
          "indexed": true,
          "internalType": "address",
          "name": "ngo",
          "type": "address"
        },
        {
          "indexed": false,
          "internalType": "uint256",
          "name": "approvedAmount",
          "type": "uint256"
        }
      ],
      "name": "HighRiskClaimVerified",
      "type": "event"
    },
    {
      "anonymous": false,
      "inputs": [
        {
          "indexed": false,
          "internalType": "uint256",
          "name": "_tokenId",
          "type": "uint256"
        }
      ],
      "name": "MetadataUpdate",
      "type": "event"
    },
    {
      "anonymous": false,
      "inputs": [
        {
          "indexed": true,
          "internalType": "address",
          "name": "ngo",
          "type": "address"
        }
      ],
      "name": "NGOAdded",
      "type": "event"
    },
    {
      "anonymous": false,
      "inputs": [
        {
          "indexed": true,
          "internalType": "address",
          "name": "ngo",
          "type": "address"
        }
      ],
      "name": "NGORemoved",
      "type": "event"
    },
    {
      "anonymous": false,
      "inputs": [
        {
          "indexed": true,
          "internalType": "address",
          "name": "owner",
          "type": "address"
        },
        {
          "indexed": false,
          "internalType": "string",
          "name": "action",
          "type": "string"
        },
        {
          "indexed": true,
          "internalType": "address",
          "name": "target",
          "type": "address"
        }
      ],
      "name": "OwnershipAction",
      "type": "event"
    },
    {
      "anonymous": false,
      "inputs": [
        {
          "indexed": true,
          "internalType": "address",
          "name": "previousOwner",
          "type": "address"
        },
        {
          "indexed": true,
          "internalType": "address",
          "name": "newOwner",
          "type": "address"
        }
      ],
      "name": "OwnershipTransferred",
      "type": "event"
    },
    {
      "anonymous": false,
      "inputs": [
        {
          "indexed": true,
          "internalType": "uint256",
          "name": "claimId",
          "type": "uint256"
        },
        {
          "indexed": false,
          "internalType": "uint256",
          "name": "amount",
          "type": "uint256"
        },
        {
          "indexed": false,
          "internalType": "string",
          "name": "riskLevel",
          "type": "string"
        }
      ],
      "name": "RiskAssessed",
      "type": "event"
    },
    {
      "anonymous": false,
      "inputs": [
        {
          "indexed": false,
          "internalType": "string",
          "name": "thresholdType",
          "type": "string"
        },
        {
          "indexed": false,
          "internalType": "uint256",
          "name": "oldValue",
          "type": "uint256"
        },
        {
          "indexed": false,
          "internalType": "uint256",
          "name": "newValue",
          "type": "uint256"
        }
      ],
      "name": "ThresholdUpdated",
      "type": "event"
    },
    {
      "anonymous": false,
      "inputs": [
        {
          "indexed": true,
          "internalType": "address",
          "name": "from",
          "type": "address"
        },
        {
          "indexed": true,
          "internalType": "address",
          "name": "to",
          "type": "address"
        },
        {
          "indexed": true,
          "internalType": "uint256",
          "name": "tokenId",
          "type": "uint256"
        }
      ],
      "name": "Transfer",
      "type": "event"
    },
    {
      "anonymous": false,
      "inputs": [
        {
          "indexed": true,
          "internalType": "uint256",
          "name": "claimId",
          "type": "uint256"
        },
        {
          "indexed": true,
          "internalType": "address",
          "name": "recipient",
          "type": "address"
        },
        {
          "indexed": false,
          "internalType": "uint256",
          "name": "amount",
          "type": "uint256"
        },
        {
          "indexed": false,
          "internalType": "string",
          "name": "reason",
          "type": "string"
        }
      ],
      "name": "TransferFailed",
      "type": "event"
    },
    {
      "anonymous": false,
      "inputs": [
        {
          "indexed": true,
          "internalType": "address",
          "name": "caller",
          "type": "address"
        },
        {
          "indexed": false,
          "internalType": "string",
          "name": "functionName",
          "type": "string"
        },
        {
          "indexed": false,
          "internalType": "string",
          "name": "reason",
          "type": "string"
        }
      ],
      "name": "UnauthorizedAccess",
      "type": "event"
    },
    {
      "anonymous": false,
      "inputs": [
        {
          "indexed": true,
          "internalType": "uint256",
          "name": "claimId",
          "type": "uint256"
        },
        {
          "indexed": false,
          "internalType": "string",
          "name": "validationType",
          "type": "string"
        },
        {
          "indexed": false,
          "internalType": "string",
          "name": "reason",
          "type": "string"
        }
      ],
      "name": "ValidationFailed",
      "type": "event"
    },
    {
      "anonymous": false,
      "inputs": [
        {
          "indexed": true,
          "internalType": "uint256",
          "name": "claimId",
          "type": "uint256"
        },
        {
          "indexed": false,
          "internalType": "uint32",
          "name": "timestamp",
          "type": "uint32"
        }
      ],
      "name": "ValidationTimestampUpdated",
      "type": "event"
    },
    {
      "anonymous": false,
      "inputs": [
        {
          "indexed": true,
          "internalType": "address",
          "name": "victim",
          "type": "address"
        }
      ],
      "name": "VictimAdded",
      "type": "event"
    },
    {
      "anonymous": false,
      "inputs": [
        {
          "indexed": true,
          "internalType": "address",
          "name": "victim",
          "type": "address"
        }
      ],
      "name": "VictimRemoved",
      "type": "event"
    },
    {
      "stateMutability": "payable",
      "type": "fallback"
    },
    {
      "inputs": [],
      "name": "MIN_DONATION_FOR_NFT",
      "outputs": [
        {
          "internalType": "uint256",
          "name": "",
          "type": "uint256"
        }
      ],
      "stateMutability": "view",
      "type": "function"
    },
    {
      "inputs": [
        {
          "internalType": "address",
          "name": "ngo",
          "type": "address"
        }
      ],
      "name": "addAuthorizedNGO",
      "outputs": [],
      "stateMutability": "nonpayable",
      "type": "function"
    },
    {
      "inputs": [
        {
          "internalType": "address[]",
          "name": "ngos",
          "type": "address[]"
        }
      ],
      "name": "addAuthorizedNGOsBatch",
      "outputs": [],
      "stateMutability": "nonpayable",
      "type": "function"
    },
    {
      "inputs": [
        {
          "internalType": "address",
          "name": "victim",
          "type": "address"
        }
      ],
      "name": "addVerifiedVictim",
      "outputs": [],
      "stateMutability": "nonpayable",
      "type": "function"
    },
    {
      "inputs": [
        {
          "internalType": "address[]",
          "name": "victims",
          "type": "address[]"
        }
      ],
      "name": "addVerifiedVictimsBatch",
      "outputs": [],
      "stateMutability": "nonpayable",
      "type": "function"
    },
    {
      "inputs": [
        {
          "internalType": "address",
          "name": "to",
          "type": "address"
        },
        {
          "internalType": "uint256",
          "name": "tokenId",
          "type": "uint256"
        }
      ],
      "name": "approve",
      "outputs": [],
      "stateMutability": "nonpayable",
      "type": "function"
    },
    {
      "inputs": [
        {
          "internalType": "uint256",
          "name": "claimId",
          "type": "uint256"
        },
        {
          "internalType": "uint256",
          "name": "approved",
          "type": "uint256"
        }
      ],
      "name": "approveClaim",
      "outputs": [],
      "stateMutability": "nonpayable",
      "type": "function"
    },
    {
      "inputs": [
        {
          "internalType": "uint256",
          "name": "amount",
          "type": "uint256"
        }
      ],
      "name": "assessRisk",
      "outputs": [
        {
          "internalType": "string",
          "name": "riskLevel",
          "type": "string"
        },
        {
          "internalType": "bool",
          "name": "isLowRisk",
          "type": "bool"
        }
      ],
      "stateMutability": "view",
      "type": "function"
    },
    {
      "inputs": [
        {
          "internalType": "address",
          "name": "",
          "type": "address"
        }
      ],
      "name": "authorizedNGOs",
      "outputs": [
        {
          "internalType": "bool",
          "name": "",
          "type": "bool"
        }
      ],
      "stateMutability": "view",
      "type": "function"
    },
    {
      "inputs": [
        {
          "internalType": "address",
          "name": "owner",
          "type": "address"
        }
      ],
      "name": "balanceOf",
      "outputs": [
        {
          "internalType": "uint256",
          "name": "",
          "type": "uint256"
        }
      ],
      "stateMutability": "view",
      "type": "function"
    },
    {
      "inputs": [
        {
          "internalType": "uint256",
          "name": "",
          "type": "uint256"
        }
      ],
      "name": "claims",
      "outputs": [
        {
          "internalType": "address",
          "name": "claimant",
          "type": "address"
        },
        {
          "internalType": "uint256",
          "name": "requested",
          "type": "uint256"
        },
        {
          "internalType": "uint256",
          "name": "approved",
          "type": "uint256"
        },
        {
          "internalType": "enum EfficientDisasterRelief.ClaimStatus",
          "name": "status",
          "type": "uint8"
        },
        {
          "internalType": "string",
          "name": "docsIpfs",
          "type": "string"
        },
        {
          "internalType": "bool",
          "name": "cidValidated",
          "type": "bool"
        },
        {
          "internalType": "bool",
          "name": "addressVerified",
          "type": "bool"
        },
        {
          "internalType": "address",
          "name": "ngoVerifier",
          "type": "address"
        },
        {
          "internalType": "uint32",
          "name": "validationTimestamp",
          "type": "uint32"
        }
      ],
      "stateMutability": "view",
      "type": "function"
    },
    {
      "inputs": [],
      "name": "contractBalance",
      "outputs": [
        {
          "internalType": "uint256",
          "name": "",
          "type": "uint256"
        }
      ],
      "stateMutability": "view",
      "type": "function"
    },
    {
      "inputs": [
        {
          "internalType": "uint256",
          "name": "claimId",
          "type": "uint256"
        }
      ],
      "name": "disburseFunds",
      "outputs": [],
      "stateMutability": "nonpayable",
      "type": "function"
    },
    {
      "inputs": [
        {
          "internalType": "string",
          "name": "ipfsMetadata",
          "type": "string"
        }
      ],
      "name": "donate",
      "outputs": [],
      "stateMutability": "payable",
      "type": "function"
    },
    {
      "inputs": [
        {
          "internalType": "uint256",
          "name": "tokenId",
          "type": "uint256"
        }
      ],
      "name": "getApproved",
      "outputs": [
        {
          "internalType": "address",
          "name": "",
          "type": "address"
        }
      ],
      "stateMutability": "view",
      "type": "function"
    },
    {
      "inputs": [
        {
          "internalType": "uint256",
          "name": "id",
          "type": "uint256"
        }
      ],
      "name": "getClaim",
      "outputs": [
        {
          "internalType": "address",
          "name": "",
          "type": "address"
        },
        {
          "internalType": "uint256",
          "name": "",
          "type": "uint256"
        },
        {
          "internalType": "uint256",
          "name": "",
          "type": "uint256"
        },
        {
          "internalType": "enum EfficientDisasterRelief.ClaimStatus",
          "name": "",
          "type": "uint8"
        },
        {
          "internalType": "string",
          "name": "",
          "type": "string"
        },
        {
          "internalType": "bool",
          "name": "",
          "type": "bool"
        },
        {
          "internalType": "bool",
          "name": "",
          "type": "bool"
        },
        {
          "internalType": "address",
          "name": "",
          "type": "address"
        },
        {
          "internalType": "uint32",
          "name": "",
          "type": "uint32"
        }
      ],
      "stateMutability": "view",
      "type": "function"
    },
    {
      "inputs": [
        {
          "internalType": "address",
          "name": "user",
          "type": "address"
        }
      ],
      "name": "getClaimIds",
      "outputs": [
        {
          "internalType": "uint256[]",
          "name": "",
          "type": "uint256[]"
        }
      ],
      "stateMutability": "view",
      "type": "function"
    },
    {
      "inputs": [],
      "name": "getRiskThresholds",
      "outputs": [
        {
          "internalType": "uint256",
          "name": "lowRisk",
          "type": "uint256"
        }
      ],
      "stateMutability": "view",
      "type": "function"
    },
    {
      "inputs": [
        {
          "internalType": "address",
          "name": "owner",
          "type": "address"
        },
        {
          "internalType": "address",
          "name": "operator",
          "type": "address"
        }
      ],
      "name": "isApprovedForAll",
      "outputs": [
        {
          "internalType": "bool",
          "name": "",
          "type": "bool"
        }
      ],
      "stateMutability": "view",
      "type": "function"
    },
    {
      "inputs": [
        {
          "internalType": "address",
          "name": "ngo",
          "type": "address"
        }
      ],
      "name": "isAuthorizedNGO",
      "outputs": [
        {
          "internalType": "bool",
          "name": "isAuthorized",
          "type": "bool"
        }
      ],
      "stateMutability": "view",
      "type": "function"
    },
    {
      "inputs": [
        {
          "internalType": "address",
          "name": "victim",
          "type": "address"
        }
      ],
      "name": "isVerifiedVictim",
      "outputs": [
        {
          "internalType": "bool",
          "name": "isVerified",
          "type": "bool"
        }
      ],
      "stateMutability": "view",
      "type": "function"
    },
    {
      "inputs": [],
      "name": "lowRiskThreshold",
      "outputs": [
        {
          "internalType": "uint256",
          "name": "",
          "type": "uint256"
        }
      ],
      "stateMutability": "view",
      "type": "function"
    },
    {
      "inputs": [],
      "name": "name",
      "outputs": [
        {
          "internalType": "string",
          "name": "",
          "type": "string"
        }
      ],
      "stateMutability": "view",
      "type": "function"
    },
    {
      "inputs": [],
      "name": "nextClaimId",
      "outputs": [
        {
          "internalType": "uint256",
          "name": "",
          "type": "uint256"
        }
      ],
      "stateMutability": "view",
      "type": "function"
    },
    {
      "inputs": [],
      "name": "nextTokenId",
      "outputs": [
        {
          "internalType": "uint256",
          "name": "",
          "type": "uint256"
        }
      ],
      "stateMutability": "view",
      "type": "function"
    },
    {
      "inputs": [],
      "name": "owner",
      "outputs": [
        {
          "internalType": "address",
          "name": "",
          "type": "address"
        }
      ],
      "stateMutability": "view",
      "type": "function"
    },
    {
      "inputs": [
        {
          "internalType": "uint256",
          "name": "tokenId",
          "type": "uint256"
        }
      ],
      "name": "ownerOf",
      "outputs": [
        {
          "internalType": "address",
          "name": "",
          "type": "address"
        }
      ],
      "stateMutability": "view",
      "type": "function"
    },
    {
      "inputs": [
        {
          "internalType": "uint256",
          "name": "claimId",
          "type": "uint256"
        }
      ],
      "name": "rejectClaim",
      "outputs": [],
      "stateMutability": "nonpayable",
      "type": "function"
    },
    {
      "inputs": [
        {
          "internalType": "address",
          "name": "ngo",
          "type": "address"
        }
      ],
      "name": "removeAuthorizedNGO",
      "outputs": [],
      "stateMutability": "nonpayable",
      "type": "function"
    },
    {
      "inputs": [
        {
          "internalType": "address[]",
          "name": "ngos",
          "type": "address[]"
        }
      ],
      "name": "removeAuthorizedNGOsBatch",
      "outputs": [],
      "stateMutability": "nonpayable",
      "type": "function"
    },
    {
      "inputs": [
        {
          "internalType": "address",
          "name": "victim",
          "type": "address"
        }
      ],
      "name": "removeVerifiedVictim",
      "outputs": [],
      "stateMutability": "nonpayable",
      "type": "function"
    },
    {
      "inputs": [
        {
          "internalType": "address[]",
          "name": "victims",
          "type": "address[]"
        }
      ],
      "name": "removeVerifiedVictimsBatch",
      "outputs": [],
      "stateMutability": "nonpayable",
      "type": "function"
    },
    {
      "inputs": [],
      "name": "renounceOwnership",
      "outputs": [],
      "stateMutability": "nonpayable",
      "type": "function"
    },
    {
      "inputs": [
        {
          "internalType": "uint256",
          "name": "claimId",
          "type": "uint256"
        },
        {
          "internalType": "uint256",
          "name": "approvedAmount",
          "type": "uint256"
        }
      ],
      "name": "reviewAndApproveHighRiskClaim",
      "outputs": [],
      "stateMutability": "nonpayable",
      "type": "function"
    },
    {
      "inputs": [
        {
          "internalType": "address",
          "name": "from",
          "type": "address"
        },
        {
          "internalType": "address",
          "name": "to",
          "type": "address"
        },
        {
          "internalType": "uint256",
          "name": "tokenId",
          "type": "uint256"
        }
      ],
      "name": "safeTransferFrom",
      "outputs": [],
      "stateMutability": "nonpayable",
      "type": "function"
    },
    {
      "inputs": [
        {
          "internalType": "address",
          "name": "from",
          "type": "address"
        },
        {
          "internalType": "address",
          "name": "to",
          "type": "address"
        },
        {
          "internalType": "uint256",
          "name": "tokenId",
          "type": "uint256"
        },
        {
          "internalType": "bytes",
          "name": "data",
          "type": "bytes"
        }
      ],
      "name": "safeTransferFrom",
      "outputs": [],
      "stateMutability": "nonpayable",
      "type": "function"
    },
    {
      "inputs": [
        {
          "internalType": "address",
          "name": "operator",
          "type": "address"
        },
        {
          "internalType": "bool",
          "name": "approved",
          "type": "bool"
        }
      ],
      "name": "setApprovalForAll",
      "outputs": [],
      "stateMutability": "nonpayable",
      "type": "function"
    },
    {
      "inputs": [
        {
          "internalType": "uint256",
          "name": "newThreshold",
          "type": "uint256"
        }
      ],
      "name": "setLowRiskThreshold",
      "outputs": [],
      "stateMutability": "nonpayable",
      "type": "function"
    },
    {
      "inputs": [
        {
          "internalType": "uint256",
          "name": "requested",
          "type": "uint256"
        },
        {
          "internalType": "string",
          "name": "docsIpfs",
          "type": "string"
        }
      ],
      "name": "submitClaim",
      "outputs": [],
      "stateMutability": "nonpayable",
      "type": "function"
    },
    {
      "inputs": [
        {
          "internalType": "bytes4",
          "name": "interfaceId",
          "type": "bytes4"
        }
      ],
      "name": "supportsInterface",
      "outputs": [
        {
          "internalType": "bool",
          "name": "",
          "type": "bool"
        }
      ],
      "stateMutability": "view",
      "type": "function"
    },
    {
      "inputs": [],
      "name": "symbol",
      "outputs": [
        {
          "internalType": "string",
          "name": "",
          "type": "string"
        }
      ],
      "stateMutability": "view",
      "type": "function"
    },
    {
      "inputs": [
        {
          "internalType": "uint256",
          "name": "tokenId",
          "type": "uint256"
        }
      ],
      "name": "tokenURI",
      "outputs": [
        {
          "internalType": "string",
          "name": "",
          "type": "string"
        }
      ],
      "stateMutability": "view",
      "type": "function"
    },
    {
      "inputs": [
        {
          "internalType": "address",
          "name": "from",
          "type": "address"
        },
        {
          "internalType": "address",
          "name": "to",
          "type": "address"
        },
        {
          "internalType": "uint256",
          "name": "tokenId",
          "type": "uint256"
        }
      ],
      "name": "transferFrom",
      "outputs": [],
      "stateMutability": "nonpayable",
      "type": "function"
    },
    {
      "inputs": [
        {
          "internalType": "address",
          "name": "newOwner",
          "type": "address"
        }
      ],
      "name": "transferOwnership",
      "outputs": [],
      "stateMutability": "nonpayable",
      "type": "function"
    },
    {
      "inputs": [
        {
          "internalType": "address",
          "name": "",
          "type": "address"
        },
        {
          "internalType": "uint256",
          "name": "",
          "type": "uint256"
        }
      ],
      "name": "userClaims",
      "outputs": [
        {
          "internalType": "uint256",
          "name": "",
          "type": "uint256"
        }
      ],
      "stateMutability": "view",
      "type": "function"
    },
    {
      "inputs": [
        {
          "internalType": "address",
          "name": "",
          "type": "address"
        }
      ],
      "name": "verifiedVictims",
      "outputs": [
        {
          "internalType": "bool",
          "name": "",
          "type": "bool"
        }
      ],
      "stateMutability": "view",
      "type": "function"
    },
    {
      "stateMutability": "payable",
      "type": "receive"
    }
  ],
  "bytecode": "0x608060405267016345785d8a0000600f553480156200001d57600080fd5b50336040518060400160405280600b81526020016a2932b634b2b32237b737b960a91b8152506040518060400160405280600381526020016229222760e91b8152508160009081620000709190620001bf565b5060016200007f8282620001bf565b5050506001600160a01b038116620000b157604051631e4fbdf760e01b81526000600482015260240160405180910390fd5b620000bc81620000c8565b5060016008556200028b565b600780546001600160a01b038381166001600160a01b0319831681179093556040519116919082907f8be0079c531659141344cd1fd0a4f28419497f9722a3daafe3b4186f6b6457e090600090a35050565b634e487b7160e01b600052604160045260246000fd5b600181811c908216806200014557607f821691505b6020821081036200016657634e487b7160e01b600052602260045260246000fd5b50919050565b601f821115620001ba57600081815260208120601f850160051c81016020861015620001955750805b601f850160051c820191505b81811015620001b657828155600101620001a1565b5050505b505050565b81516001600160401b03811115620001db57620001db6200011a565b620001f381620001ec845462000130565b846200016c565b602080601f8311600181146200022b5760008415620002125750858301515b600019600386901b1c1916600185901b178555620001b6565b600085815260208120601f198616915b828110156200025c578886015182559484019460019091019084016200023b565b50858210156200027b5787850151600019600388901b60f8161c191681555b5050505050600190811b01905550565b613d0c806200029b6000396000f3fe6080604052600436106102695760003560e01c80638b7afe2e11610143578063ba8e46fa116100bb578063d982579311610077578063d9825793146107c9578063d9ffd413146107f6578063e78b142214610812578063e985e9c514610832578063f2fde38b14610852578063fa6415741461087257005b8063ba8e46fa146106fa578063c1a358f11461071a578063c87b56dd14610753578063ca9748ea14610773578063cc212a4814610793578063cf9b3628146107b357005b8063a53db8d41161010a578063a53db8d414610637578063a888c2cd14610657578063b1b3145c14610677578063b5aebc8014610697578063b5d06759146106aa578063b88d4fde146106da57005b80638b7afe2e146105bb5780638da5cb5b146105ce57806395d89b41146105ec578063a0021cf114610601578063a22cb4651461061757005b80634e6c80c7116101e157806370a082311161019d57806370a082311461050d578063715018a61461053b57806371c482fd1461055057806375794a3c146105705780637cfe7097146105865780637fbe658c1461059b57005b80634e6c80c7146104285780635aef2447146104485780635db914271461047d578063601e73fa146104ad5780636352211e146104cd5780636db73dd0146104ed57005b80632034110111610230578063203411011461034f57806323b872dd1461036f5780632fb74d0c1461038f5780633b8ff506146103c857806342842e0e146103e857806345b465251461040857005b806301ffc9a71461027257806306fdde03146102a7578063081812fc146102c9578063095ea7b314610301578063130e015d1461032157005b3661027057005b005b34801561027e57600080fd5b5061029261028d366004613455565b610892565b60405190151581526020015b60405180910390f35b3480156102b357600080fd5b506102bc6108bd565b60405161029e91906134c2565b3480156102d557600080fd5b506102e96102e43660046134d5565b61094f565b6040516001600160a01b03909116815260200161029e565b34801561030d57600080fd5b5061027061031c36600461350a565b610978565b34801561032d57600080fd5b5061034161033c3660046134d5565b610987565b60405161029e929190613534565b34801561035b57600080fd5b5061027061036a3660046134d5565b61099d565b34801561037b57600080fd5b5061027061038a366004613558565b610a5e565b34801561039b57600080fd5b506102926103aa366004613594565b6001600160a01b03166000908152600d602052604090205460ff1690565b3480156103d457600080fd5b506102706103e33660046135af565b610aee565b3480156103f457600080fd5b50610270610403366004613558565b610eb7565b34801561041457600080fd5b5061027061042336600461367d565b610ed7565b34801561043457600080fd5b506102706104433660046136c4565b6111df565b34801561045457600080fd5b506104686104633660046134d5565b61130b565b60405161029e99989796959493929190613771565b34801561048957600080fd5b50610292610498366004613594565b600d6020526000908152604090205460ff1681565b3480156104b957600080fd5b506102706104c8366004613594565b6114fe565b3480156104d957600080fd5b506102e96104e83660046134d5565b6115a5565b3480156104f957600080fd5b50610270610508366004613594565b6115b0565b34801561051957600080fd5b5061052d610528366004613594565b61167e565b60405190815260200161029e565b34801561054757600080fd5b506102706116c6565b34801561055c57600080fd5b5061027061056b366004613594565b6116da565b34801561057c57600080fd5b5061052d60095481565b34801561059257600080fd5b50600f5461052d565b3480156105a757600080fd5b506102706105b63660046135af565b6117b7565b3480156105c757600080fd5b504761052d565b3480156105da57600080fd5b506007546001600160a01b03166102e9565b3480156105f857600080fd5b506102bc61198e565b34801561060d57600080fd5b5061052d600a5481565b34801561062357600080fd5b506102706106323660046137e0565b61199d565b34801561064357600080fd5b506102706106523660046134d5565b6119a8565b34801561066357600080fd5b506104686106723660046134d5565b611a85565b34801561068357600080fd5b50610270610692366004613594565b611b7f565b6102706106a536600461381c565b611c84565b3480156106b657600080fd5b506102926106c5366004613594565b600e6020526000908152604090205460ff1681565b3480156106e657600080fd5b506102706106f5366004613851565b611d71565b34801561070657600080fd5b506102706107153660046136c4565b611d89565b34801561072657600080fd5b50610292610735366004613594565b6001600160a01b03166000908152600e602052604090205460ff1690565b34801561075f57600080fd5b506102bc61076e3660046134d5565b611ea5565b34801561077f57600080fd5b5061052d61078e36600461350a565b611fb6565b34801561079f57600080fd5b506102706107ae3660046134d5565b611fe7565b3480156107bf57600080fd5b5061052d600f5481565b3480156107d557600080fd5b506107e96107e4366004613594565b61221f565b60405161029e91906138cd565b34801561080257600080fd5b5061052d670de0b6b3a764000081565b34801561081e57600080fd5b5061027061082d3660046136c4565b61228b565b34801561083e57600080fd5b5061029261084d366004613911565b6123cd565b34801561085e57600080fd5b5061027061086d366004613594565b6123fb565b34801561087e57600080fd5b5061027061088d3660046136c4565b612436565b60006001600160e01b03198216632483248360e11b14806108b757506108b782612577565b92915050565b6060600080546108cc90613944565b80601f01602080910402602001604051908101604052809291908181526020018280546108f890613944565b80156109455780601f1061091a57610100808354040283529160200191610945565b820191906000526020600020905b81548152906001019060200180831161092857829003601f168201915b5050505050905090565b600061095a826125c7565b506000828152600460205260409020546001600160a01b03166108b7565b610983828233612600565b5050565b606060006109948361260d565b91509150915091565b6109a5612661565b6000818152600b602052604081209060038083015460ff16908111156109cd576109cd613739565b146109eb5760405163baf3f0f760e01b815260040160405180910390fd5b60038101805460ff81169160029160ff1916600183021790555082600080516020613cb7833981519152826002604051610a2692919061397e565b60405180910390a260405183907f2aa44a1bb19392ef6a2fd220d2b1649a6dc1bebbfa2a6f2c496e2d39a3339d0e90600090a2505050565b6001600160a01b038216610a8d57604051633250574960e11b8152600060048201526024015b60405180910390fd5b6000610a9a83833361268e565b9050836001600160a01b0316816001600160a01b031614610ae8576040516364283d7b60e01b81526001600160a01b0380861660048301526024820184905282166044820152606401610a84565b50505050565b336000908152600e602052604090205460ff16610bb557336001600160a01b03167f5aea5fa0b3e520014b11c7e54f0cd6a73d00473e5a17cc29b470faa1bc66afb8604051610b92906040808252600c908201526b2723a7afa32aa721aa24a7a760a11b6060820152608060208201819052601f908201527f43616c6c6572206973206e6f7420616e20617574686f72697a6564204e474f0060a082015260c00190565b60405180910390a260405163cc4c14b160e01b8152336004820152602401610a84565b610bbd612789565b6000828152600b602052604081209060038083015460ff1690811115610be557610be5613739565b14610c035760405163baf3f0f760e01b815260040160405180910390fd5b8060010154821115610c2857604051636ff0d0cb60e11b815260040160405180910390fd5b81471015610c7257604080518381524760208201528491600080516020613c9783398151915291015b60405180910390a2604051631e9acf1760e31b815260040160405180910390fd5b600080610c7e8461260d565b915091508015610d4157847fbad3b9951cda04680f6424ede15d5ddb39aebe1063ae4f2f5afab3897b79c4c3604051610d20906040808252600f908201526e149254d2d7d054d4d154d4d3515395608a1b60608201526080602082018190526028908201527f416d6f756e74206973206c6f772d7269736b2c2075736520726567756c61722060a082015267185c1c1c9bdd985b60c21b60c082015260e00190565b60405180910390a260405163162908e360e11b815260040160405180910390fd5b60038301805460ff81169142916001919060ff1916828002179055506002850186905560058501805462010000600160d01b03191633620100000263ffffffff60b01b191617600160b01b63ffffffff84160217905560405187907f9e52afa4306873a3cf5874f36752e5848e179b48710fd047f90159a38867825690610dcb9089908890613999565b60405180910390a260405163ffffffff8216815287907f1c0212a91d5efaa6d9ff3dd9907779dcaa83ca7c2614d4f0d64b3cf4131cbe439060200160405180910390a286600080516020613cb7833981519152836001604051610e2f92919061397e565b60405180910390a2604051868152339088907fd11cdfc37bf1b79dacffac95d12abe42717fca33c4a136076a2655dd63744f3a9060200160405180910390a3867f638d892b8630b775fea5d7a52b209e8bfa1d90c32b57cd37208ac84d4bcd6dcb87604051610ea091815260200190565b60405180910390a250505050506109836001600855565b610ed283838360405180602001604052806000815250611d71565b505050565b81600003610ef85760405163162908e360e11b815260040160405180910390fd5b336000908152600d602052604090205460ff16610f2a57604051630a05204d60e31b8152336004820152602401610a84565b610f33816127b3565b610f52578060405163c04c467360e01b8152600401610a8491906134c2565b600a805460009182610f63836139b2565b9091555060408051610120810182523381526020808201878152600083850181815260608501828152608086018a9052600160a0870181905260c0870181905260e087018490524263ffffffff8116610100890152898552600b90965296909220855181546001600160a01b0319166001600160a01b03909116178155925183870155516002830155516003808301805497985093969495929491939260ff19929092169190849081111561101a5761101a613739565b0217905550608082015160048201906110339082613a1f565b5060a08201516005909101805460c084015160e08501516101009586015163ffffffff16600160b01b0263ffffffff60b01b196001600160a01b0390921662010000029190911662010000600160d01b031992151590960261ff00199515159590951661ffff1990931692909217939093179290921692909217179055336000908152600c60209081526040808320805460018181018355918552929093209091018490555183917fed7a58d6c4cd5bb0f6b030f3d63b87ef7a18b8e181102957ee96306bf8cbc6fb91611108918791613534565b60405180910390a260405160018152339083907f89046760e6e0dd47653a1a61008a997540af1d5285a3f5d6e5b72463d3506a759060200160405180910390a360405163ffffffff8216815282907f1c0212a91d5efaa6d9ff3dd9907779dcaa83ca7c2614d4f0d64b3cf4131cbe439060200160405180910390a281600080516020613cb78339815191526000806040516111a492919061397e565b60405180910390a2604051339083907f4dfa1d399fc3d748dfe023239c274bdaa380853d97eec367121715b4659d7fdb90600090a350505050565b6111e7612661565b80600081900361120a5760405163521299a960e01b815260040160405180910390fd5b6000805b828110156112a657600085858381811061122a5761122a613adf565b905060200201602081019061123f9190613594565b90506001600160a01b0381161561129d576001600160a01b0381166000818152600d6020526040808220805460ff19169055517fe3429f53eee967eaa7cc45b397511a7cf9dbce315169cd7797e8a51408379d739190a28260010192505b5060010161120e565b506040805160608082526017908201527f52454d4f56455f56455249464945445f56494354494d53000000000000000000608082015260208101839052908101839052600080516020613c048339815191529060a0015b60405180910390a150505050565b6000818152600b6020908152604080832081516101208101835281546001600160a01b03168152600182015493810193909352600281015491830191909152600380820154849384938493606093859384938493849384939291838a019160ff169081111561137c5761137c613739565b600381111561138d5761138d613739565b81526020016004820180546113a190613944565b80601f01602080910402602001604051908101604052809291908181526020018280546113cd90613944565b801561141a5780601f106113ef5761010080835404028352916020019161141a565b820191906000526020600020905b8154815290600101906020018083116113fd57829003601f168201915b505050505081526020016005820160009054906101000a900460ff161515151581526020016005820160019054906101000a900460ff161515151581526020016005820160029054906101000a90046001600160a01b03166001600160a01b03166001600160a01b031681526020016005820160169054906101000a900463ffffffff1663ffffffff1663ffffffff16815250509050806000015181602001518260400151836060015184608001518560a001518660c001518760e00151886101000151995099509950995099509950995099509950509193959799909294969850565b611506612661565b6001600160a01b0381166000818152600d602052604090819020805460ff19169055513390600080516020613c4983398151915290611566906020808252600d908201526c52454d4f56455f56494354494d60981b604082015260600190565b60405180910390a36040516001600160a01b038216907fe3429f53eee967eaa7cc45b397511a7cf9dbce315169cd7797e8a51408379d7390600090a250565b60006108b7826125c7565b6115b8612661565b6001600160a01b0381166115df5760405163e6c4247b60e01b815260040160405180910390fd5b6001600160a01b0381166000818152600d602052604090819020805460ff19166001179055513390600080516020613c498339815191529061163f906020808252600a90820152694144445f56494354494d60b01b604082015260600190565b60405180910390a36040516001600160a01b038216907fc91b8107ce64a3727de0641843d2bf445e4075a7110d01205619d92520cf1d8690600090a250565b60006001600160a01b0382166116aa576040516322718ad960e21b815260006004820152602401610a84565b506001600160a01b031660009081526003602052604090205490565b6116ce612661565b6116d86000612a01565b565b6116e2612661565b6001600160a01b0381166000908152600e602052604090205460ff1661171b5760405163ea8e4eb560e01b815260040160405180910390fd5b6001600160a01b0381166000818152600e602052604090819020805460ff19169055513390600080516020613c4983398151915290611778906020808252600a908201526952454d4f56455f4e474f60b01b604082015260600190565b60405180910390a36040516001600160a01b038216907fc3cc2d4d0e852319b6015fc2b372154c2826030473a20ce08621498818b453e490600090a250565b6117bf612661565b6117c7612789565b6000828152600b602052604081209060038083015460ff16908111156117ef576117ef613739565b1461180d5760405163baf3f0f760e01b815260040160405180910390fd5b806001015482111561183257604051636ff0d0cb60e11b815260040160405180910390fd5b8147101561185f57604080518381524760208201528491600080516020613c978339815191529101610c51565b600381015460ff166000806118738561260d565b60038601805460ff1916600117905560028601879055604051919350915086907f9e52afa4306873a3cf5874f36752e5848e179b48710fd047f90159a388678256906118c29088908690613999565b60405180910390a285600080516020613cb78339815191528460016040516118eb92919061397e565b60405180910390a2857f638d892b8630b775fea5d7a52b209e8bfa1d90c32b57cd37208ac84d4bcd6dcb8660405161192591815260200190565b60405180910390a280156119805760008061193f88612a53565b91509150877fb8d640ce96ed6c3a5e7e56da39d613f23b15676e20dd0b17b744b985f7d0c4778383604051611975929190613af5565b60405180910390a250505b505050506109836001600855565b6060600180546108cc90613944565b610983338383612de9565b6119b0612661565b806000036119d157604051631cc767c560e11b815260040160405180910390fd5b600f8054908290556040516000903390600080516020613c4983398151915290611a1f9060208082526010908201526f15541110551157d512149154d213d31160821b604082015260600190565b60405180910390a3604080516060808252600790820152666c6f775269736b60c81b6080820152602081018390529081018390527fb4fa87b548db8e1f413d37a7f7e6a36e70badcd19428dc15374cbd0f090b0bdc9060a0015b60405180910390a15050565b600b60205260009081526040902080546001820154600283015460038401546004850180546001600160a01b03909516959394929360ff90921692611ac990613944565b80601f0160208091040260200160405190810160405280929190818152602001828054611af590613944565b8015611b425780601f10611b1757610100808354040283529160200191611b42565b820191906000526020600020905b815481529060010190602001808311611b2557829003601f168201915b5050506005909301549192505060ff808216916101008104909116906001600160a01b03620100008204169063ffffffff600160b01b9091041689565b611b87612661565b6001600160a01b038116611bae5760405163e6c4247b60e01b815260040160405180910390fd5b6001600160a01b0381166000908152600e602052604090205460ff1615611be857604051633013e93f60e11b815260040160405180910390fd5b6001600160a01b0381166000818152600e602052604090819020805460ff19166001179055513390600080516020613c4983398151915290611c45906020808252600790820152664144445f4e474f60c81b604082015260600190565b60405180910390a36040516001600160a01b038216907f50b9b9c6395d23865db94961091033fa2f5e0fbe581d0cc6e8c13a582ba9cb8c90600090a250565b611c8c612789565b34600003611cad5760405163162908e360e11b815260040160405180910390fd5b670de0b6b3a76400003410611d28576009805460009182611ccd836139b2565b919050559050611cdd3382612e88565b611ce78183612ea2565b604080513481526020810183905233917f106aac375bbcf013d1e52338bbf9e740009a1a3a6869f8daa1b72aa1620f5fec910160405180910390a250611d64565b604080513481526000602082015233917f106aac375bbcf013d1e52338bbf9e740009a1a3a6869f8daa1b72aa1620f5fec910160405180910390a25b611d6e6001600855565b50565b611d7c848484610a5e565b610ae83385858585612eeb565b611d91612661565b806000819003611db45760405163521299a960e01b815260040160405180910390fd5b6000805b82811015611e53576000858583818110611dd457611dd4613adf565b9050602002016020810190611de99190613594565b90506001600160a01b03811615611e4a576001600160a01b0381166000818152600d6020526040808220805460ff19166001179055517fc91b8107ce64a3727de0641843d2bf445e4075a7110d01205619d92520cf1d869190a28260010192505b50600101611db8565b50604080516060808252601490820152734144445f56455249464945445f56494354494d5360601b608082015260208101839052908101839052600080516020613c048339815191529060a0016112fd565b6060611eb0826125c7565b5060008281526006602052604081208054611eca90613944565b80601f0160208091040260200160405190810160405280929190818152602001828054611ef690613944565b8015611f435780601f10611f1857610100808354040283529160200191611f43565b820191906000526020600020905b815481529060010190602001808311611f2657829003601f168201915b505050505090506000611f6160408051602081019091526000815290565b90508051600003611f73575092915050565b815115611fa5578082604051602001611f8d929190613b10565b60405160208183030381529060405292505050919050565b611fae84613016565b949350505050565b600c6020528160005260406000208181548110611fd257600080fd5b90600052602060002001600091509150505481565b611fef612661565b611ff7612789565b6000818152600b60205260409020600160038083015460ff169081111561202057612020613739565b1461203e5760405163baf3f0f760e01b815260040160405180910390fd5b8060020154471015612074576002810154604080519182524760208301528391600080516020613c978339815191529101610c51565b6003818101805460ff19811690921790558154600283015460405160ff909316926000926001600160a01b031691908381818185875af1925050503d80600081146120db576040519150601f19603f3d011682016040523d82523d6000602084013e6120e0565b606091505b50509050806121a157818360030160006101000a81548160ff0219169083600381111561210f5761210f613739565b021790555082546002840154604080519182526020820181905260159082015274131bddcb5b195d995b0818d85b1b0819985a5b1959605a1b60608201526001600160a01b039091169085907f8a80ca77004505ce9dae941ad3bf4db0fad65f2aa93eda970032a2500f990a939060800160405180910390a36040516315c3c77d60e21b815260040160405180910390fd5b83600080516020613cb78339815191528360036040516121c292919061397e565b60405180910390a2825460028401546040519081526001600160a01b039091169085907feb2cd132972ac2f1b1b2806265483bfbe1a6c39df51e7a855c258ecd12fd1c449060200160405180910390a3505050611d6e6001600855565b6001600160a01b0381166000908152600c602090815260409182902080548351818402810184019094528084526060939283018282801561227f57602002820191906000526020600020905b81548152602001906001019080831161226b575b50505050509050919050565b612293612661565b8060008190036122b65760405163521299a960e01b815260040160405180910390fd5b6000805b8281101561237c5760008585838181106122d6576122d6613adf565b90506020020160208101906122eb9190613594565b90506001600160a01b0381161580159061231e57506001600160a01b0381166000908152600e602052604090205460ff16155b15612373576001600160a01b0381166000818152600e6020526040808220805460ff19166001179055517f50b9b9c6395d23865db94961091033fa2f5e0fbe581d0cc6e8c13a582ba9cb8c9190a28260010192505b506001016122ba565b50604080516060808252601390820152724144445f415554484f52495a45445f4e474f5360681b608082015260208101839052908101839052600080516020613c048339815191529060a0016112fd565b6001600160a01b03918216600090815260056020908152604080832093909416825291909152205460ff1690565b612403612661565b6001600160a01b03811661242d57604051631e4fbdf760e01b815260006004820152602401610a84565b611d6e81612a01565b61243e612661565b8060008190036124615760405163521299a960e01b815260040160405180910390fd5b6000805b8281101561252357600085858381811061248157612481613adf565b90506020020160208101906124969190613594565b90506001600160a01b038116158015906124c857506001600160a01b0381166000908152600e602052604090205460ff165b1561251a576001600160a01b0381166000818152600e6020526040808220805460ff19169055517fc3cc2d4d0e852319b6015fc2b372154c2826030473a20ce08621498818b453e49190a28260010192505b50600101612465565b506040805160608082526016908201527552454d4f56455f415554484f52495a45445f4e474f5360501b608082015260208101839052908101839052600080516020613c048339815191529060a0016112fd565b60006001600160e01b031982166380ac58cd60e01b14806125a857506001600160e01b03198216635b5e139f60e01b145b806108b757506301ffc9a760e01b6001600160e01b03198316146108b7565b6000818152600260205260408120546001600160a01b0316806108b757604051637e27328960e01b815260048101849052602401610a84565b610ed2838383600161308a565b60606000600f54831161263d5750506040805180820190915260038152624c4f5760e81b60208201529160019150565b5050604080518082019091526004815263090928e960e31b60208201529160009150565b6007546001600160a01b031633146116d85760405163118cdaa760e01b8152336004820152602401610a84565b6000828152600260205260408120546001600160a01b03908116908316156126bb576126bb818486613190565b6001600160a01b038116156126f9576126d860008560008061308a565b6001600160a01b038116600090815260036020526040902080546000190190555b6001600160a01b03851615612728576001600160a01b0385166000908152600360205260409020805460010190555b60008481526002602052604080822080546001600160a01b0319166001600160a01b0389811691821790925591518793918516917fddf252ad1be2c89b69c2b068fc378daa952ba7f163c4a11628f55a4df523b3ef91a490505b9392505050565b6002600854036127ac57604051633ee5aeb560e01b815260040160405180910390fd5b6002600855565b805160009082908083036127cb575060009392505050565b80602e0361292d576127dc82613b3f565b60f01c61516d0361292d5760025b602e81101561292257600083828151811061280757612807613adf565b01602001516001600160f81b0319169050603160f81b8110806128375750603d60f91b6001600160f81b03198216115b156128485750600095945050505050565b603960f81b6001600160f81b031982161180156128725750604160f81b6001600160f81b03198216105b156128835750600095945050505050565b604960f81b6001600160f81b0319821614806128ac5750604f60f81b6001600160f81b03198216145b156128bd5750600095945050505050565b602d60f91b6001600160f81b031982161180156128e75750606160f81b6001600160f81b03198216105b156128f85750600095945050505050565b6001600160f81b03198116601b60fa1b036129195750600095945050505050565b506001016127ea565b506001949350505050565b6032811015801561293f575060648111155b156129f75761294d82613b76565b60e01c6362616679036129f75760045b8181101561292257600083828151811061297957612979613adf565b01602001516001600160f81b0319169050606160f81b81108015906129ac5750603d60f91b6001600160f81b0319821611155b806129de5750601960f91b6001600160f81b03198216108015906129de5750603760f81b6001600160f81b0319821611155b6129ee5750600095945050505050565b5060010161295d565b5060009392505050565b600780546001600160a01b038381166001600160a01b0319831681179093556040519116919082907f8be0079c531659141344cd1fd0a4f28419497f9722a3daafe3b4186f6b6457e090600090a35050565b6000818152600b60205260408120606090600160038083015460ff1690811115612a7f57612a7f613739565b141580612a915750600581015460ff16155b80612aa657506005810154610100900460ff16155b80612ab65750600f548160020154115b80612ac357506002810154155b15612b9857837fbad3b9951cda04680f6424ede15d5ddb39aebe1063ae4f2f5afab3897b79c4c3604051612b6b906040808252601a908201527f4155544f5f44495342555253414c5f454c49474942494c49545900000000000060608201526080602082018190526025908201527f436c61696d206e6f7420656c696769626c6520666f72206175746f2d6469736260a0820152641d5c9cd85b60da1b60c082015260e00190565b60405180910390a26000604051806060016040528060258152602001613c24602591399250925050915091565b60028101544790811015612c1757600282015460408051918252602082018390528691600080516020613c97833981519152910160405180910390a260006040518060400160405280601d81526020017f496e73756666696369656e7420636f6e74726163742062616c616e6365000000815250935093505050915091565b60038201548254600284015460405160ff909316926000926001600160a01b031691908381818185875af1925050503d8060008114612c72576040519150601f19603f3d011682016040523d82523d6000602084013e612c77565b606091505b505090508015612d45576003848101805460ff1916821790556040518891600080516020613cb783398151915291612cb091869161397e565b60405180910390a2835460028501546040519081526001600160a01b039091169088907feb2cd132972ac2f1b1b2806265483bfbe1a6c39df51e7a855c258ecd12fd1c449060200160405180910390a360016040518060400160405280601981526020017f4175746f2d64697362757273616c207375636365737366756c000000000000008152509550955050505050915091565b835460028501546040805191825260208201819052601e908201527f4175746f2d64697362757273616c207472616e73666572206661696c6564000060608201526001600160a01b039091169088907f8a80ca77004505ce9dae941ad3bf4db0fad65f2aa93eda970032a2500f990a939060800160405180910390a360006040518060600160405280602e8152602001613c69602e91399550955050505050915091565b6001600160a01b038216612e1b57604051630b61174360e31b81526001600160a01b0383166004820152602401610a84565b6001600160a01b03838116600081815260056020908152604080832094871680845294825291829020805460ff191686151590811790915591519182527f17307eab39ab6107e8899845ad3d59bd9653f200f220920489ca2b5937696c31910160405180910390a3505050565b6109838282604051806020016040528060008152506131f4565b6000828152600660205260409020612eba8282613a1f565b506040518281527ff8e1a15aba9398e019f0b49df1a4fde98ee17ae345cb5f6b5e2c27f5033e8ce790602001611a79565b6001600160a01b0383163b1561300f57604051630a85bd0160e11b81526001600160a01b0384169063150b7a0290612f2d908890889087908790600401613ba9565b6020604051808303816000875af1925050508015612f68575060408051601f3d908101601f19168201909252612f6591810190613be6565b60015b612fd1573d808015612f96576040519150601f19603f3d011682016040523d82523d6000602084013e612f9b565b606091505b508051600003612fc957604051633250574960e11b81526001600160a01b0385166004820152602401610a84565b805160208201fd5b6001600160e01b03198116630a85bd0160e11b1461300d57604051633250574960e11b81526001600160a01b0385166004820152602401610a84565b505b5050505050565b6060613021826125c7565b50600061303960408051602081019091526000815290565b905060008151116130595760405180602001604052806000815250612782565b806130638461320c565b604051602001613074929190613b10565b6040516020818303038152906040529392505050565b808061309e57506001600160a01b03821615155b156131605760006130ae846125c7565b90506001600160a01b038316158015906130da5750826001600160a01b0316816001600160a01b031614155b80156130ed57506130eb81846123cd565b155b156131165760405163a9fbf51f60e01b81526001600160a01b0384166004820152602401610a84565b811561315e5783856001600160a01b0316826001600160a01b03167f8c5be1e5ebec7d5bd14f71427d1e84f3dd0314c0f7b2291e5b200ac8c7c3b92560405160405180910390a45b505b5050600090815260046020526040902080546001600160a01b0319166001600160a01b0392909216919091179055565b61319b83838361329f565b610ed2576001600160a01b0383166131c957604051637e27328960e01b815260048101829052602401610a84565b60405163177e802f60e01b81526001600160a01b038316600482015260248101829052604401610a84565b6131fe8383613302565b610ed2336000858585612eeb565b6060600061321983613367565b600101905060008167ffffffffffffffff811115613239576132396135d1565b6040519080825280601f01601f191660200182016040528015613263576020820181803683370190505b5090508181016020015b600019016f181899199a1a9b1b9c1cb0b131b232b360811b600a86061a8153600a850494508461326d57509392505050565b60006001600160a01b03831615801590611fae5750826001600160a01b0316846001600160a01b031614806132d957506132d984846123cd565b80611fae5750506000908152600460205260409020546001600160a01b03908116911614919050565b6001600160a01b03821661332c57604051633250574960e11b815260006004820152602401610a84565b600061333a8383600061268e565b90506001600160a01b03811615610ed2576040516339e3563760e11b815260006004820152602401610a84565b60008072184f03e93ff9f4daa797ed6e38ed64bf6a1f0160401b83106133a65772184f03e93ff9f4daa797ed6e38ed64bf6a1f0160401b830492506040015b6d04ee2d6d415b85acef810000000083106133d2576d04ee2d6d415b85acef8100000000830492506020015b662386f26fc1000083106133f057662386f26fc10000830492506010015b6305f5e1008310613408576305f5e100830492506008015b612710831061341c57612710830492506004015b6064831061342e576064830492506002015b600a83106108b75760010192915050565b6001600160e01b031981168114611d6e57600080fd5b60006020828403121561346757600080fd5b81356127828161343f565b60005b8381101561348d578181015183820152602001613475565b50506000910152565b600081518084526134ae816020860160208601613472565b601f01601f19169290920160200192915050565b6020815260006127826020830184613496565b6000602082840312156134e757600080fd5b5035919050565b80356001600160a01b038116811461350557600080fd5b919050565b6000806040838503121561351d57600080fd5b613526836134ee565b946020939093013593505050565b6040815260006135476040830185613496565b905082151560208301529392505050565b60008060006060848603121561356d57600080fd5b613576846134ee565b9250613584602085016134ee565b9150604084013590509250925092565b6000602082840312156135a657600080fd5b612782826134ee565b600080604083850312156135c257600080fd5b50508035926020909101359150565b634e487b7160e01b600052604160045260246000fd5b600067ffffffffffffffff80841115613602576136026135d1565b604051601f8501601f19908116603f0116810190828211818310171561362a5761362a6135d1565b8160405280935085815286868601111561364357600080fd5b858560208301376000602087830101525050509392505050565b600082601f83011261366e57600080fd5b612782838335602085016135e7565b6000806040838503121561369057600080fd5b82359150602083013567ffffffffffffffff8111156136ae57600080fd5b6136ba8582860161365d565b9150509250929050565b600080602083850312156136d757600080fd5b823567ffffffffffffffff808211156136ef57600080fd5b818501915085601f83011261370357600080fd5b81358181111561371257600080fd5b8660208260051b850101111561372757600080fd5b60209290920196919550909350505050565b634e487b7160e01b600052602160045260246000fd5b6004811061376d57634e487b7160e01b600052602160045260246000fd5b9052565b600061012060018060a01b03808d1684528b60208501528a604085015261379b606085018b61374f565b8160808501526137ad8285018a613496565b97151560a085015295151560c084015250509190921660e082015263ffffffff9091166101009091015295945050505050565b600080604083850312156137f357600080fd5b6137fc836134ee565b91506020830135801515811461381157600080fd5b809150509250929050565b60006020828403121561382e57600080fd5b813567ffffffffffffffff81111561384557600080fd5b611fae8482850161365d565b6000806000806080858703121561386757600080fd5b613870856134ee565b935061387e602086016134ee565b925060408501359150606085013567ffffffffffffffff8111156138a157600080fd5b8501601f810187136138b257600080fd5b6138c1878235602084016135e7565b91505092959194509250565b6020808252825182820181905260009190848201906040850190845b81811015613905578351835292840192918401916001016138e9565b50909695505050505050565b6000806040838503121561392457600080fd5b61392d836134ee565b915061393b602084016134ee565b90509250929050565b600181811c9082168061395857607f821691505b60208210810361397857634e487b7160e01b600052602260045260246000fd5b50919050565b6040810161398c828561374f565b612782602083018461374f565b828152604060208201526000611fae6040830184613496565b6000600182016139d257634e487b7160e01b600052601160045260246000fd5b5060010190565b601f821115610ed257600081815260208120601f850160051c81016020861015613a005750805b601f850160051c820191505b8181101561300d57828155600101613a0c565b815167ffffffffffffffff811115613a3957613a396135d1565b613a4d81613a478454613944565b846139d9565b602080601f831160018114613a825760008415613a6a5750858301515b600019600386901b1c1916600185901b17855561300d565b600085815260208120601f198616915b82811015613ab157888601518255948401946001909101908401613a92565b5085821015613acf5787850151600019600388901b60f8161c191681555b5050505050600190811b01905550565b634e487b7160e01b600052603260045260246000fd5b8215158152604060208201526000611fae6040830184613496565b60008351613b22818460208801613472565b835190830190613b36818360208801613472565b01949350505050565b805160208201516001600160f01b03198082169291906002831015613b6e5780818460020360031b1b83161693505b505050919050565b805160208201516001600160e01b03198082169291906004831015613b6e5760049290920360031b82901b161692915050565b6001600160a01b0385811682528416602082015260408101839052608060608201819052600090613bdc90830184613496565b9695505050505050565b600060208284031215613bf857600080fd5b81516127828161343f56feac300fce5a7f64c0fd45a99b710a3f144dd7d459d0452c577b63e448d51ee870436c61696d206e6f7420656c696769626c6520666f72206175746f2d64697362757273616c5eed19b8e5da7ae5dcfd02a0ebbab8721e21ed9abf10dc2a0a1c0d4a2424c4c45472616e73666572206661696c6564202d2066616c6c6261636b20746f206d616e75616c2064697362757273616c6e42c444f7e43a2cd7fe03f0b4675c726078cfe7b87c1c61205489769e68e3ac2d8b91cd39b91d452a6c29034de86e9ac2ff4936f8fe3a2aa319a662f4206ecea2646970667358221220bea4629f39a37b8f178c2c2faa063968960e8e2b8d797ce3561128ddab6cac1264736f6c63430008140033",
  "linkReferences": {},
  "deployedLinkReferences": {}
}